:10000000B5EF00F0EA6A0A0EE96EEF500DE0020E5D
:10001000016E006A002EFED7012EFBD7970E006EF0
:10002000002EFED7EF2EF3D71200956A0FC08CFF7B
:10003000060E006E002EFED7000096928D82060EF0
:10004000006E002EFED7000096928D921200956AE7
:100050008C6A96908D9096928D920F0E0A6ED2DFDA
:10006000010E076E0750030808E3300E0F6EDDDF48
:10007000050E0A6EC7DF072AF5D7380E0F6ED5DFDB
:10008000010E0F6ED2DF010E0A6EBCDF0C0E0F6E7A
:10009000CCDF060E0F6EC9DFCEEF00F096908D908C
:1000A0000D5202E18D9001D08D809690420E006E2F
:1000B000002EFED7000096928D920EC00FF0B5DF95
:1000C00012000B2C01D003D0C00E0C6E02D0800E9B
:1000D0000C6E010E0A5C0C260D6A0CC00EF0DEDF01
:1000E00095EF00F009500C0A07E0060A0DE0070A38
:1000F0000BE0050A0FE013D00D6A010E0E6ECEDF85
:10010000020E0A6E7FDF11D0010E0A6E020E0B6E18
:10011000D8D70BD00D6A100E0E6EC0DF06D0010EC0
:100120000D6E09C00EF0BADF00D0120008BE0FD06D
:100130000F0E006E073800160A0E005C03E2300E48
:10014000002602D00850002600C009F0CBDF0F0EB9
:1001500007160A0E075C02E2300E02D0089E085015
:10016000072607C009F0BEDF1200F86AD09EEA6ACF
:10017000E96A0C0EAF6EA20EAC6E900EAB6EC18033
:10018000C182C184C196056A066AC69A949A948807
:100190009486350EC66E400EC76E59D7140E0A6E81
:1001A00031DFC7A0FED7C9CF05F0C7A0FED7C9CFA2
:1001B00006F00C0E096E96DF05C007F0370E086ECC
:1001C000B5DF0A0E096E8EDF06C007F0370E086E27
:0401D000ADDF03009C
:020000040030CA
:0E00000000220E0E000181000FC00FE00F4025
:00000001FF
;PIC18F452
;CRC=8A81  CREATED="28-mar-12 16:15"
