:10000000D4EF01F00A0D5265626F6F740000254C49
:100010007520202D20202564200A0D001250100884
:1000200005E0136E10361136132EFCD79488949A7F
:1000300094968B9612C013F011AE8B9A11BE8B8AD8
:100040001036113600D08B860136023682A8019018
:1000500082B801808B96132EEFD712000E6A0F6ABA
:10006000949A8B8A94968B96060E006E002EFED77D
:100070000000929A898A0DC011F00CC010F0100E89
:10008000126ECCDF94968B960F6A0F500F0811E317
:10009000949A8B8A00D000D094968B8600D000D0A2
:1000A00000D094968B9600D000D0949A8B9A0F2A09
:1000B000ECD7929A899ACCEF00F0000B006E0A50B0
:1000C000800B036E0050031001E0058E0950100BE9
:1000D000006E036A0050031001E004880950030B0E
:1000E000006E036A005003101BE00950030B006E02
:1000F000036A035003E1010E005C0BE0035003E1CF
:10010000020E005C08E0035003E1030E005C05E012
:1001100007D0048005D0048203D0030E041200D05F
:1001200009500C0B006E036A005003101BE00950CD
:100130000C0B006E036A035003E1040E005C0BE03D
:10014000035003E1080E005C08E0035003E10C0ECD
:10015000005C05E007D0048405D0048603D00C0EB3
:10016000041200D00B5213E00D6A0B34026E0D34F2
:10017000036E023603360236033602360336023683
:100180000336E00E0216025004120350051205C099
:100190000DF004C00CF062D7EDEF01F00900F5524C
:1001A0000DE0F6CF09F0F7CF0AF0F5509EA8FED784
:1001B000AD6E09C0F6FF0AC0F7FFF0D706EF02F0F8
:1001C000EA6A0A0EE96EEF500DE0020E016E006A57
:1001D000002EFED7012EFBD7970E006E002EFED705
:1001E000EF2EF3D71200EACF14F0E9CF13F00D3859
:1001F000F0090F6E0F26E20F106E320F126E0D50C7
:100200000F0B102610261226E90F116E112611264B
:100210000C380F0B1126122611361236121E12360A
:100220000C500F0B12260F36070E0E6E0A0E11061B
:100230001226FDE310061126FDE30F061026FDE34E
:100240000E060F26FDE3EA6A0E0EE96E070E131482
:10025000139CE926120EE95CD8B4138CEF50006EA3
:1002600008E113BC06D013B80CD013B602D0200E90
:1002700003D013861398300E002600509EA8FED798
:10028000AD6EEE5013ACE6D737EF02F00900F6CFB3
:100290000DF0F7CF0EF0F5509EA8FED7AD6E0DC055
:1002A000F6FF0EC0F7FF0C2EF1D73EEF02F0135011
:1002B000016A125C03E212C000F00CD0006A080E62
:1002C000146E123600361350005CD8B0006E013642
:1002D000142EF7D71200200E0DA8300E0E6E0CC093
:1002E00000F00CAE07D0001E002A00C00CF02D0E4E
:1002F0000E6E0D8E01500CC012F0640E136ED7DF1F
:1003000000C00CF0300E01240F6E0CC012F00A0E6B
:10031000136ECDDF300E0024116E300E0124106EEE
:100320000EC000F00DA602D00DAE0D940DB80BD08E
:100330000DAE22D00DB420D000C00FF00DB21CD0F5
:1003400000C010F019D0300E0F5C16E100C00FF0A5
:10035000200E0E6E0DA604D00D940D820DAE0D92E2
:10036000300E105C09E100C010F0200E0F6E0DA6DB
:10037000F7D70D920DAE0D900DA404D00E509EA88F
:10038000FED7AD6E0DA204D00F509EA8FED7AD6E65
:100390000DA004D010509EA8FED7AD6E11509EA89F
:1003A000FED7AD6E43EF02F0F86AD09EEA6AE96AC2
:1003B0000C0EAF6EA20EAC6E900EAB6E9488949A3B
:1003C00094968B96C180C182C184C196800E0A6EBC
:1003D0000E0E096E400E0B6E70D6A96AA86AA69C16
:1003E000A69EA684F250006EF29E0F01550EA76ED7
:1003F000AA0EA76EA682A6B2FED7A6940050F2124D
:10040000040EF66E000EF76E0001C8D6640E0A6E7A
:10041000D7DE0300929A899A116A106A100E126E42
:10042000FDDD015002C007F001C006F0929A898AF2
:1004300007300A6E0630096E0A3209320A32093272
:100440000A3209320A3209320A320932030E0A1616
:100450000650060B006E036A0050D89000300B6EF9
:10046000100EE96E0AC00DF009C00CF0BCD6110EDA
:10047000F66E000EF76E050E0C6E08D70BC00CF072
:100480001F0E0D6E28D7200E9EA8FED7AD6E0A0E49
:100490009EA8FED7AD6E0D0E9EA8FED7AD6E020EC5
:1004A000096EFA0E0A6E8CDE092EFBD7B3D7030055
:020000040030CA
:0E00000000220E0E000181000FC00FE00F4025
:00000001FF
;PIC18F452
;CRC=CBCB  CREATED="23-abr-12 16:40"
